:1000000000000420018800003988000065540000C9
:100010003D8800007154000077540000000000008B
:10002000000000000000000000000000F96C00006B
:100030004588000000000000916D0000A16D0000E7
:10004000C1B20000150F00004B8800004B88000073
:100050004B8800004B8800004B8800004B88000054
:100060004B8800004B8800004B8800004B88000044
:100070004B88000055B400004B8800002D0F000095
:100080004B8800004B8800004B8800004B88000024
:100090004B8800004B8800004B8800004B88000014
:1000A0004B8800004B8800004B8800004B88000004
:1000B0004B8800004B88000000000000000000009A
:1000C0004B8800004B8800004B8800004B880000E4
:1000D0004B8800004B8800004B8800004B880000D4
:1000E0004B8800004B8800004B8800000000000097
:1000F000000000004B880000000000004B8800005A
:1001000010B5054C237833B9044B13B10448AFF351
:1001100000800123237010BD500C0020000000005F
:10012000B8ED000008B5034B1BB103490348AFF31A
:10013000008008BD00000000540C0020B8ED000055
:10014000154B002B08BF134B9D46A3F5803A0021A9
:100150008B460F461348144A121A0DF0FBF80F4B4A
:10016000002B00D098470E4B002B00D09847002062
:10017000002104000D000D48002802D00C4805F0B5
:100180000FFF0CF0ADFC2000290006F03FFC05F04D
:1001900004FF00BF00000800000004200000000071
:1001A00069690000500C0020382E0020A15F00007B
:1001B00000000000F8B50546064655F8044B8CB91A
:1001C0000D4F386818B14FF0FF3107F073FE3468F7
:1001D00024B9284606F088FB2C463560386808B1FB
:1001E00007F080FEAC4204D0044905488B2205F09C
:1001F00037FA2046F8BD00BFC81D002080D8000097
:10020000C3D8000008B50A2006F0CAF8FF21431E33
:1002100000F1090203F8011F9342FBD1014B186062
:1002200008BD00BF6C0C0020C36810B52BB9044991
:1002300004484FF4FD7205F013FABDE8104018476A
:10024000E6D8000025D90000036801221B690021BF
:100250001847036800221B69114618476FF0150004
:100260007047000010B5044B044640F8083B08F006
:10027000ABFE204610BD00BF3CD9000010B50446BF
:10028000FFF7F0FF20462C2106F0A0F8204610BD15
:100290000346024A083008F061BE00BF0B030000AD
:1002A00037B50A4B03600023044603718360836102
:1002B00083620D460192FFF7EBFF201D019A29464C
:1002C00004F0B4FC204603B030BD00BF3CD90000B0
:1002D00084B070B505AD85E80E00044605F0E0FA7F
:1002E000089A04F1080672B195E80F000C3484E80E
:1002F0000F0001223046012108F0BEFEBDE870402B
:1003000004B005F0E3BAA261F4E7012908B502D010
:10031000022907D008BD8369002BFBD00C30FFF702
:1003200083FFF7E7836A002BF4D01C30F7E7000067
:1003300010B5094C03460144002099420AD013F835
:10034000012B80EA02600822400028BF6040013A89
:10035000FAD1F2E710BD00BFB71DC104416830B447
:10036000034671B1D0E9032000F0010402B944B1A1
:10037000451001EB60000CB149598A58996830BCAE
:10038000104730BC704713B590F93530446800937E
:1003900090F9343090F9332090F93210201D09F093
:1003A00035FD02B010BD000010B5044605F078FA26
:1003B000074B1B68002B09DD064B1878A0420CBFC9
:1003C0001C46002405F082FA204610BD0024F9E7FF
:1003D000E80C0020700C0020084A08B51368002BB8
:1003E00004DD07490748AF2205F03AF9591C1160AE
:1003F000054A782000FB032008BD00BFE80C002060
:1004000044D9000086D90000700C00200023082287
:1004100010B5C0E90E2303860B4B03640446FF238B
:10042000A0F8443005F03CFA94F84C00FFF7BCFF0C
:10043000606028B9FFF7D0FF94F84C30606003701B
:10044000BDE8104005F042BA40420F0038B50446FE
:10045000124820601248A0602046002584F83430FD
:100460009DF9103084F8321084F8332084F8353048
:10047000C4E90455E460A561E561E5624FF0FF3130
:1004800000F8365F04F0E6FB064BA56420462365C2
:1004900084F84C50FFF7BAFF204638BDB8D90000A9
:1004A0005D0300008703000043685B6F834210B563
:1004B00004460FD0036D98476068D4E90E120023FC
:1004C000043009F001FD6068216C043009F024FD5E
:1004D00063685C6710BD036870B504461B690D4610
:1004E000164698476068436FA342C4E90E560BD185
:1004F000002332462946043009F0E6FC23682046F2
:100500005B69BDE8704018472046FFF7CDFFF5E76F
:10051000036870B504461B690D46984760682564FA
:10052000436FA34209D12946043009F0F5FC236842
:1005300020465B69BDE8704018472046FFF7B4FFCE
:10054000F5E7000090F936305A1C18D0012259B155
:100550001F2B86BF0A4903F01F034FF0A04102FA88
:1005600003F3C1F8083570471F2B86BF044903F019
:100570001F034FF0A04102FA03F3C1F80C35704796
:100580000003005038B5036804461B69984794F986
:1005900045506B1C84F8453045B92046FFF784FF71
:1005A00029462046BDE83840FFF7CCBF38BD10B51E
:1005B00090F84530013B5BB2044680F8453013B9F2
:1005C0000121FFF7BFFF236820465B69BDE81040AB
:1005D000184737B504460191FFF7D4FF60680199C9
:1005E000043009F0D1FC05462046FFF7E0FF28461D
:1005F00003B030BD30B5044687B0CDE90421039384
:10060000FFF7C0FF94F84450606801950A9D059972
:100610000095DDE90332043009F0E0FC0546204690
:10062000FFF7C5FF284607B030BD08B540684C301D
:10063000FFF7C0FDBDE8084006F05EB908B54068A8
:100640004C30FFF7B7FDBDE8084006F073B9000075
:1006500010B50A4B03600446FFF7E7FF63685A6F63
:10066000A24208BF0022204608BF5A67FFF7E6FFF4
:10067000E06908B104F078FD204610BDB8D900004B
:1006800010B50446FFF7E4FF2046542105F09EFE16
:10069000204610BD0020704700290CBF6FF01800E5
:1006A00000207047012070476FF0150070476FF011
:1006B0001500704784B001A880E80E0004B07047B0
:1006C00070B5D0E90213D0E908250446521845EB6D
:1006D000030300F039F9636B23B104F12800BDE88E
:1006E0007040184770BD000038B50446154600F04C
:1006F00015F9064B236000220023C4E908230023D8
:10070000636384F83850204638BD00BFD8D9000054
:1007100013B5044601A804F02FFD204600F01EF991
:10072000636B23B194F838300BB105F06BFB0023F9
:10073000636301A804F028FD02B010BD70B5044643
:1007400015461E4600F00AF9C4E90856A06904F0EF
:10075000D0FC2A1846EB01032046BDE8704000F0AB
:10076000F3B884B073B5054607AC01A884E80E0061
:1007700004F002FD6B6B23B995F838300BB105F02E
:100780002BFB94E80F0005F1280686E80F00DDE951
:100790000C232846FFF7D2FF01A804F0F5FC02B0B5
:1007A000BDE8704004B0704730B5436B85B0044677
:1007B000B3B100F128030FCB6D4685E80F0000238D
:1007C000636394F838300BB105F01CFB039B2BB925
:1007D000044905484FF4FD7204F042FF284698474B
:1007E00005B030BDE6D8000025D9000010B504469C
:1007F00004F0A6FC012201462046FFF775FF024BDC
:100800002360204610BD00BFE4D90000437D10B531
:1008100004461BB1037D0BB105F0F4FA204610BD70
:1008200013B5044601A804F0A7FC637D53B9237DEA
:100830000BB105F0D1FA206904F05BFCC4E90001BA
:100840000123637501A804F09FFC02B010BD37B509
:1008500004460D4601A804F08FFC00230022C4E9E1
:1008600000236B7D4BB1286904F043FCD5E90032CD
:10087000C01A61EB0201C4E9000101A804F084FC84
:10088000204603B030BD30B585B004460D4603A800
:1008900004F072FC29466846FFF7D9FFD5E902103B
:1008A000009B019A5B1840EB0202C4E9003203A8E6
:1008B00004F06AFC204605B030BD13B5044601A81B
:1008C00004F05AFC206904F014FC00220023C4E95F
:1008D0000001C4E9022301A804F056FC02B010BDD7
:1008E000D0B5002300260027C0E90067C0E90267F1
:1008F0000446016102754375FFF7DFFF2046D0BD56
:1009000010B5044604F01CFC012201462046FFF706
:10091000E7FF204610BD03681B68184710B5044662
:10092000074B236000220023C4E90223002308466A
:10093000A161C4E90433034904F052FB204610BD11
:10094000F0D900001709000007B5009000F1080178
:10095000806904F084FB03B05DF804FB00F108013A
:10096000806904F0ABBB000010B5034B0360044684
:10097000FFF7F4FF204610BDF0D9000038B5002382
:100980000446836519B90A4600F00FF803E0002A0F
:10099000FAD100F042F8204638BD10B5044600F008
:1009A0004FF8204610BD00F057B9032938B504466A
:1009B00007D9D31C23F003039A1A8A1A22F00301E1
:1009C0001A460023C4E90433E2600D4605BBC4E9BE
:1009D00006512262256000F003FA00F003FAC4E930
:1009E0000A556060258184F8245004F1300000F03D
:1009F00019FA00280BDB04F1440000F00BFA002880
:100A000005DB04F1480000F005FA00EAE07038BDAB
:100A10002369013323616D08D8E737B505460846D9
:100A200001910CF003F9044638B1024601992846B9
:100A3000FFF7BBFF6C6103B030BD4FF0FF30FAE74A
:100A400070B505680446B5B9A36A1BB1E06A4FF0FA
:100A5000FF31984704F1480000F0DEF904F144004A
:100A600000F0DAF904F1300000F0E4F96069BDE863
:100A700070400CF0E3B8EE6836B9EB6913B105F1DC
:100A800024009847AD68DEE7F36913B106F124004E
:100A90009847F668F0E773B506462731483001906D
:100AA00021F0030500F0B9F9B469019806F11803C3
:100AB0005CB9F3699D4223D8346A5B1BF361621908
:100AC000012332622560237107E02268954213D822
:100AD000E26872B11A60A368936000F0A0F9002385
:100AE0004FF0FF32C4E90532E3612434204602B0FE
:100AF00070BDA2681A60F0E704F10803A468D7E7A4
:100B000000F08DF9F2E751F8083C73B505460C4644
:100B10000BB108469847EB6833B1A4F12406B34201
:100B200002D82B6AB34204D2002304F8203C02B05E
:100B300070BD05F14800019000F06FF9AB690198B4
:100B400005F11802ABB11D6854F8241C8D420CD37A
:100B50000FD144F8183C13689B6844F81C3C16609D
:100B600002B0BDE8704000F05AB903F108029B687A
:100B7000E8E7002344F8183C1368EEE7F8B54B6942
:100B80009B1A002BACBFD318131C4B61437A4B71DB
:100B900000F14407054638460C46164600F03DF97C
:100BA000284603687BB359696269A1EB020CBCF16A
:100BB000000F25DB914226D19B68A36013B104F19D
:100BC00008021A612246036842F80C3F002199602E
:100BD0001A61AB6A046020616BB195F8242052B1B0
:100BE0002A68A24207D1E2682AB96169E86A891BCA
:100BF00021EAE17198473846BDE8F84000F00FB9A6
:100C000003F10800CDE7A36013B104F108021A61F3
:100C10000023E360DDE7F8B5144605460F46A2F170
:100C2000240600F0DFF854F8103C44F8047C034438
:100C3000024644F8103C31462846FFF79FFF2969D9
:100C400014F8204C8C40E968761A05F130003443E2
:100C500000F0F2F82046F8BD2DE9F74F04460F46A4
:100C600000F0C0F84FF00008054607EB000984F8D3
:100C7000248004F14406304600F0CFF8637A013353
:100C8000637263685B1B002B2368D8BF65600193A8
:100C900001A91BB15A69521B002A33DD236003B13D
:100CA0001C613046C1F8008000F0B9F8019B01A832
:100CB00063BB019D4FF0010A002D34D100F092F882
:100CC000002F82465CDBA9EB0005002D5ADCA36AED
:100CD0009BB1304600F0A1F8A36A43B1226832B15B
:100CE0005169E06AA1EB0A0121EAE1719847012309
:100CF00084F82430304600F092F80023237203B0C9
:100D0000BDE8F08F03F108019B68C2E79D681A46B1
:100D1000002191601146D268002AFAD1016003F1E6
:100D200008002B46C4E72B6AD5F808B013B105F1CB
:100D300024009847AA69002A0BDB6B6913446B6196
:100D400000F050F8294602462046FFF717FF5D469F
:100D5000B2E7E36873B1AB420CD8236AAB4209D364
:100D60002B7922690133DBB213FA02F214BF2B7123
:100D700085F804A005F124012046FFF7C4FEE6E74C
:100D80004FF0FF35304600F048F823683BB1596911
:100D9000A1EB0A0121EAE1718D4228BF0D463046E0
:100DA00000F03DF8294604F1300000F048F8237ABD
:100DB0007BB1304600F031F8237A3BB10023304656
:100DC000237203B0BDE8F04F00F029B8304600F0C0
:100DD00026F800F007F805464DE740F8081C704774
:100DE00004F060BF07B504F054FD70B1084B6846CD
:100DF000196804F015FADDE900014FF47A72002356
:100E00000BF04CF903B05DF804FB05F02DFDF9E79C
:100E1000800E002000207047704704F041BD04F0B0
:100E200055BD000008B5024905F0F8FC002008BDDA
:100E3000F4D9000005F0FBBC012105F0F5BC08B5B4
:100E4000012341EAE172194605F00CFD431E5842A8
:100E5000584108BD002A08B5C0E9001205DA074963
:100E6000074840F2752204F0FBFB29B922B103497F
:100E7000044840F27622F6E708BD00BFFBD9000027
:100E800036DA000041DA0000002A08B5C0E9001295
:100E900005DA0749074840F2752204F0E1FB29B959
:100EA00022B10349044840F27622F6E708BD00BFAC
:100EB000FBD9000036DA000041DA000003680BB10C
:100EC0000846184770470000044B0022C3E901227E
:100ED0001A611A60024ADA60704700BFEC0C002009
:100EE000BD0E00000346002210B503F8012B00F1EF
:100EF000110403F8012B9C42FBD1418210BD00007C
:100F000008B542F602110248FFF7ECFF08BD00BF2A
:100F1000000D0020034B1A78034B53F8223003B125
:100F20001847704704020020140D0020074B1B785F
:100F30005BB1074B0122C3F80823064B5A78FF2AFE
:100F400000D1FEE7044A12885A707047581B0020EF
:100F500000F000407A1B0020BC1D002070470000FC
:100F6000C368017C10B52BB9044905484FF4FD72E4
:100F700004F076FBBDE81040184700BFE6D800003B
:100F800025D900000023C0E9001283607047884221
:100F900005D00B6803604B6843608B6883607047C3
:100FA000034680680028FBD19960704770B50E46F3
:100FB00011461D460446FFF7EAFF3046FFF7E7FFFC
:100FC000294600F0D9F863689D4203D80023656084
:100FD000A36070BDA468ED1AF5E7C0E90312002212
:100FE000FFF7D0BF0368C360436803610023436019
:100FF0007047C1680022FFF7C5BFD0E90312FFF7B1
:10100000C1BF30B503694468C5681B1B0468641B15
:101010001B1B9A4202D80A448A4200D130BDD0E953
:10102000004312F8015DE554436801334360F3E780
:10103000F8B50446D0E900702369E6681B1ABE1BA8
:101040009B1B9A42154605D838440CF0E9F86268B3
:101050002A446260F8BD30B5036944680268C56817
:101060001B1B521B9B1A99429CBF0919416030BD42
:10107000F8B51446036942680E469B1AC1680268B7
:10108000521A9B1A9C42054604D8304600F032F8AA
:10109000A04214D2F8BD304600F08DF8A04228BF1F
:1010A00020460746304600F080F83A46014628467A
:1010B000FFF7BEFF3946304600F05EF8E41B002C17
:1010C000E9D1E7E738B50446636803B138BDA568E0
:1010D0003DB1D5E900122046FFF754FFAB68A3608D
:1010E000F2E72368002BF1D02A4629462046FFF775
:1010F00049FFE9E7002308B918467047426880684D
:101100001344F8E770B514460546FFF7F3FFA04215
:1011100003D30C440E46B44200D170BD2B681B783B
:1011200004F8013D2B6801332B606B68013B6B6059
:101130002846FFF7C7FFEEE7F8B5154604460F4609
:10114000FFF7D8FFA84214D2F8BD66682168AE4206
:1011500028BF2E46324638460CF062F823683344E6
:10116000236063689B1B63602046FFF7ABFFAD1BEA
:101170003744002DE9D1E7E770B505460C46FFF787
:10118000B9FF88420ED270BD6B682A68A3421E4622
:1011900028BF264632449B1B2A606B602846FFF717
:1011A00091FFA41B002CEFD1EDE710B50446FFF72B
:1011B00089FF206810BD10B50446FFF783FF606803
:1011C00010BD7FB5144605460E46FFF793FFA042BB
:1011D00002D2002004B070BD294601A8FFF7D7FE57
:1011E0000CB90120F6E701A8FFF76CFF029DA542AC
:1011F00028BF254601A8FFF765FF01982A4631461A
:101200000BF0DEFF0028E4D1294601A8641B2E4420
:10121000FFF7B2FFE4E7C0E90012704730B40446BC
:10122000084611461A46D4E90053AC4630BC604724
:10123000C0E900127047034610B408461146D3E9CE
:10124000004223465DF8044B1847EE230B70E82359
:101250001370704737B50446C068019103689B68F6
:101260009847E0680368DB68984704F11005014679
:10127000019A284601F040FF28B9284603B0BDE88E
:10128000304001F09DBF002003B030BD00F003BB33
:10129000A0F10800FFF7FABF10B5034B0360044646
:1012A00000F0F6FA204610BD64DA000010B50446DE
:1012B000FFF7F2FF20464FF4087105F087F820464B
:1012C00010BD000038B504460D4600F0D9FA074BB2
:1012D00003F1080224332846C4E90235226004F1F0
:1012E000080100F040F9204638BD00BF5CDA00007C
:1012F0000830704710B4D0E901320168541001EB96
:101300006200D20748BF0A595DF8044B48BFD35862
:101310001847000008B5431C04D10F490F4820228C
:1013200004F09EF9012359B11F2886BF0C4A00F032
:101330001F004FF0A04203FA00F0C2F8080508BDF4
:101340001F2886BF064A00F01F004FF0A04203FA94
:1013500000F0C2F80C05F2E784DA0000CADA0000F7
:101360000003005070B58AB00025044600F16C06F9
:10137000009502AB0ECB3046FEF7AAFF294694F942
:101380009800FFF7C7FF012005F024F894F99800B2
:101390000121FFF7BFFF064B0694CDE90735054B4A
:1013A000009306AB0ECB3046FEF792FF0AB070BD3D
:1013B0006B150000F512000070B5044686B0254696
:1013C000CDE90421039300F0C5F81B4845F8140B40
:1013D0004FF0FF30DDE90332059900902846FFF712
:1013E00035F82046002600F8686F9DF92810012284
:1013F00003F01EFC9DF92C10324604F16C00FEF740
:101400004FFF20469DF9301000F8986F012203F03D
:101410000FFC324628460821FFF75DF828460749A9
:10142000FFF776F804F10800054A0649234600F064
:10143000E5FF204606B070BDECDA0000809698000B
:1014400009150000951400002DE9F34104460D46EE
:1014500017461E46DBB190F968000021FFF75AFFDE
:1014600004F11408690001F0FE014046FFF7B1F8ED
:1014700000233946009332464046FFF7BBF894F903
:101480006800012102B0BDE8F041FFF743BF02B0A0
:10149000BDE8F08110B40446184613460A462146BA
:1014A0005DF8044BFFF7D0BF2DE9F3410646174620
:1014B0001D4633B34C0064F07F0403F1FF38E4B2FF
:1014C0004246214638460BF045FF002107F8081038
:1014D00006F1140896F96800FFF71CFF2146404604
:1014E000FFF777F8394600953B462A464046FFF716
:1014F00081F896F96800012102B0BDE8F041FFF7DC
:1015000009BF02B0BDE8F08110B404461846134686
:101510000A4621465DF8044BFFF7C6BF10B5074BDE
:10152000044640F86C3BFEF79DFE04F11400FFF703
:101530008FF8204600F016F8204610BDECDA0000C7
:1015400010B50446FFF7EAFF20469C2104F03EFF59
:10155000204610BD024A026000224260704700BF70
:1015600004DB0000704741607047406810B10368B9
:101570001B6818477047000070B500F1300688B04E
:101580000D4604463046FFF7C3F8002D14BF042172
:101590000021206900F08CFE094B0593002306937F
:1015A0004FF47A73A0FB0301CDE90201054B0093D0
:1015B000049404AB0ECB3046FFF7D3F808B070BDEF
:1015C0005D180000C915000010B4D0E901320168AF
:1015D000541001EB6200D20748BF0A595DF8044B72
:1015E00048BFD358184730B4D0E9013204685510C9
:1015F00004EB6200D20748BF625930BC48BFD358E1
:101600001847000070B51D460E4B82600026044648
:10161000C0E90031C0E903661830FFF771F904F141
:101620003000FFF7E3F895E8030004F1780326673C
:1016300084F8746083E803006068214600F029F9AB
:10164000204670BD88DB00000167704770B590F8D8
:10165000744088B0ADF80C10ACB94FF0FF33C568DA
:1016600005931946204608AB03E903002A68079B47
:1016700000931668069B0494284618222146B0471A
:10168000204608B070BD0F20FBE7000010B590F8B1
:1016900074404CB9C368054AC3E91C201A6818464F
:1016A00052689047204610BD0F20FCE759170000F4
:1016B000C0687047002373B5054680F874300C4647
:1016C000002938D1C3681A79002A34D1DB6E026F41
:1016D00013F0180F2FD0002A2DD01E494FF425707B
:1016E00004F072FE064630B305F17802294600F098
:1016F00025FA0420CDE9006404F03EFE01230360D6
:101700000190286F036869465B689847009B93B116
:10171000019B53E8002F013A43E800210029F8D14A
:101720004AB9019810B1042104F050FE009810B19C
:1017300003685B689847286F38B144B1152C14BF13
:101740000221012103681B68984702B070BD214641
:10175000F8E700BFB4ED00001046FFF7ABBFFFF79E
:101760005FB807B501466846FFF78DF8DDE900016F
:101770004FF47A7200230AF091FC03B05DF804FB89
:10178000FFF79BB82DE9F7430E4602A901E90C00CB
:101790001421DDE900989DF828700546FFF77BF9D4
:1017A000044688B10A4BC0F80880C0E90069C360EC
:1017B00007740849FFF711FB07492246284603B082
:1017C000BDE8F043FFF727BA03B0BDE8F08300BFE0
:1017D000E71500005D0F0000610F000030B5C5681F
:1017E00085B0044625B10F490F48242203F038FF85
:1017F0004068036804F118019B689847E06078B17D
:101800000A4B0095CDE90235A43004AB206113E901
:101810000C00A0682146FFF7B5FF284605B030BD93
:101820001020FBE714DB000069DB000079150000E5
:101830001FB504463030FEF76BFF074B02930023C1
:1018400003930123009304AB13E90C00A068214625
:10185000FFF798FF04B010BD791500001FB5074BC6
:10186000029300230093039304AB014613E90C0099
:101870008068FFF787FF05B05DF804FB791500006D
:10188000024A026000224260704700BF94DB000001
:10189000704741607047406810B103681B68184783
:1018A00070470020704700207047000013B5074BB9
:1018B000074A044640F8043B01944B6800930B68C8
:1018C000044900F0E3FC204602B010BDACDB000090
:1018D0003D190000A919000070B5044686B003A8A0
:1018E000FFF755FB236820465B6898470446E0B144
:1018F000036803A81E68FFF758FC054603A8FFF716
:101900005AFC0028CDE9015005DA0949094840F29E
:10191000752203F0A5FE2DB920B10549064840F215
:101920007622F6E701A92046B04706B070BD00BF99
:10193000FBD9000036DA000041DA000008B5104695
:10194000FFF7CAFF002008BD036873B55B680C464B
:10195000984700B3036822695E68D4E90013CD1884
:10196000D21AE368CB1AD31A002BCDE9005305DA5B
:101970000A490B4840F2752203F072FE2DB923B1DB
:101980000649084840F27622F6E76946B047014624
:101990002046FFF760FB02B070BD00BFFBD900001E
:1019A00036DA000041DA000008B51046FFF7CCFF38
:1019B000002008BD04307047014AC0E9002170478B
:1019C000BCDB000070474068704740687047C06AE1
:1019D00010B103681B6818477047C06A10B10368EC
:1019E0005B6818477047C06A00B104307047A0F1C7
:1019F0000800FFF7F8BF000038B504461546FFF7AA
:101A0000DBFF294604F10800FFF750FF044B03F108
:101A100008024433A36000232260E362204638BDFD
:101A2000E0DB000010B5054B03F108024433044627
:101A300002608360FFF7C6FF204610BDE0DB0000B8
:101A4000C162704790F83000704790F831007047DD
:101A50000120704773B500240546ADF80040FFF73C
:101A6000B2FFFFF725FEC66E2846FFF7ACFFFFF773
:101A70001FFE03791BB916F0180F18BF01249DF83B
:101A8000013064F341038DF80130BDF800300020CF
:101A9000DAB262F30700C3F3072363F30F2002B047
:101AA00070BD000010B5054B03F108024833044631
:101AB00002608360FFF7B6FF204610BD2CDC0000FB
:101AC00010B50446FFF7EEFF20464FF4257104F0F1
:101AD0007DFC204610BD08B5FFF777FFFFF7E8FD56
:101AE000C36E13F0080F14BF0320042008BD343068
:101AF00000F049BD38B590F8303004465BB990F835
:101B0000315055B9343000F009FD23682046DB69B7
:101B10009847284638BD0F20FCE71420FAE708B59F
:101B200090F830302BB190F8313013B9343000F0E8
:101B300028FD002008BD01207047000038B504468C
:101B4000FFF75AFF104B03F108024833A36000234C
:101B5000226023862046FFF736FFFFF7A9FD04F138
:101B6000340501462346094A284600F097FC04F153
:101B70000800FFF71FFF2946024604F50C7001F02C
:101B8000C7F9204638BD00BF2CDC0000971B0000C1
:101B900003681B6A18470846FFF7FABF034603C9E4
:101BA000002283E803009A609A819A73184670476E
:101BB000836889685A1C82600268D15470478A69B8
:101BC00022B18368591C81600168CA5470478A68D1
:101BD00038B504460D464AB1A36800684968184400
:101BE0000BF01EFBA368AA681344A36038BD8A6982
:101BF00038B504460D464AB1A368006849691844DF
:101C00000BF00EFBA368AA691344A36038BD19B199
:101C10000B6808461B6818470069704708B5FFF74E
:101C2000F6FFFF288CBF0020012008BD037B70B5A4
:101C30000E4605461146FBB9012303738024337F0A
:101C40009A0742BF012244F040046A733046DB0722
:101C500048BF44F02004FFF7E1FF08B144F010044E
:101C6000B3690BB144F0080433781C43AB685A1CC9
:101C7000AA602A68D45470BD0024E0E770B5054618
:101C80000E46FFF7CBFFAB69002814BF01240424E4
:101C90004BB90234AA683146134428461C44FFF766
:101CA000B6FF204470BD0334F4E773B50E46044616
:101CB000114630460192FFF7AAFF019905463046CA
:101CC000FFF7ACFFA3682268591CA16010B1D5547E
:101CD00002B070BD290ED154A3685A1CA2602268BC
:101CE000290CD154A3685A1CA2602268290AD15435
:101CF000A3685A1CA2602268E9E700004B7B13B579
:101D00000446B3B18A68002A02DB4B689A4205DDBB
:101D100009490A4840F24B3203F0A2FC09686846C0
:101D2000FFF7B2F8009B2360019B6360204602B07E
:101D300010BD0360F9E700BFFBD900007CDC0000A8
:101D4000F7B50F460546114638461646FFF75FFFC2
:101D5000044650B3AB6856B33268002B576802464E
:101D600002DB6868834205DD1449154840F26F3292
:101D700003F076FC611C09D0002C02DB19198842A3
:101D800004DA0E490F484FF45C72F1E72968B4F1A8
:101D9000FF3F194408BFC21A6846FFF775F8694645
:101DA0003046B847A8682044A86003B0F0BD286852
:101DB000F968224618440BF033FAF3E7FBD9000028
:101DC00099DC0000B8DC0000437B70B505460C468A
:101DD00016460BB1002070BD8A68FF2AFADC8B69B9
:101DE000FF2BF7DC817B83B10029F3D1207F2178A1
:101DF000C00701D50629EDD061B91343EAD13146B8
:101E00002046FFF704FF28B1E4E70029EED023784D
:101E1000062BDFD123785A1E032A04D9052B05D1BE
:101E2000A3681BB1D6E7A368002BD3D03146204668
:101E3000FFF724FFD5E901329B1A9842CAD83246EF
:101E400021462846FFF7F2FE28462146FFF7B0FE5E
:101E500032462146FFF729FF28462146FFF7AFFE0D
:101E60002146FFF7B4FE21462846FFF7C0FE324662
:101E700028462146FFF764FF207FC0F3000210F0E0
:101E800001004FF0010301D0AB73A4E721780629CC
:101E900008BFAA7318469EE7F0B50646174607C95D
:101EA0008DB004AD01AC84E8070085E8070097E831
:101EB000030007AA82E803009DF82C105B0003F0E2
:101EC000030321F00301194300228DF82C10304642
:101ED0002946CDE90922FFF777FF0DB0F0BDF0B537
:101EE0000646174607C98DB004AD01AC85E807006A
:101EF00084E807000022CDE90722CDE909229DF8F8
:101F00002C205B0003F0030322F003021A438DF838
:101F10002C2029463A463046FFF756FF0DB0F0BD5B
:101F20000022C0E900228260704710B504460068B4
:101F300008B104F04DFA204610BD10B5D1E90012E9
:101F40000446FEF787FF204610BD38B5D1E900539F
:101F50008A680446E918FEF77DFF204638BD70B553
:101F60008AB003AE04460D46014630460192FFF7A3
:101F7000E4FF96E803000AAB03E9030002222146CE
:101F800005A88DF81C20FFF7E0FF019B05AA07A913
:101F90002846FFF781FF0AB070BD30B593B06D469B
:101FA000044601462846FFF7C8FF95E8030005AB45
:101FB00002AD83E80300214628460224FFF7C5FF4F
:101FC0008DF8104004AA07CA07AB83E807008DF814
:101FD0001C4093E807000AAC84E8070095E803007A
:101FE0000DAB83E803009DF84430002123F0030388
:101FF0002046CDE90F118DF84430FFF73FFE13B0B6
:1020000030BD0022C0E90022704710B504460068C8
:1020100008B104F0DDF9204610BD884238B5044609
:102020000D4608D04B684360006808B104F0D0F951
:102030002B6813B92360204638BD606804F0B0F9FE
:102040002060626829680BF0EBF8F4E72DE9F843AB
:1020500080460068894617461E4608B104F0B8F964
:102060007C68706801342044C8F8040004F098F9D2
:102070007C68C8F80000B9F1010F0CBF8023002371
:1020800023430546396800F8013B224601340BF032
:10209000C7F8D6E900122819BDE8F8430BF0C0B81C
:1020A00038B50025C0E900550446FFF7CFFF2046AC
:1020B00038BD10B5096811F8012B044602F03F0243
:1020C000FEF7C8FE204610BD0B6837B504460D4626
:1020D00023B9C0E90033204603B030BD6846FFF79E
:1020E000E8FF01996A682B68C8430131024419442A
:1020F0002046FEF7AFFEEEE730B50C4689B001682A
:10210000019289B1094D0122CDE906528DF81420C2
:10211000426803A8FEF79EFE019B03AA05A920467C
:10212000FFF7BAFE09B030BD0846FBE704DD00004A
:1021300010B501688AB0E9B16C4642682046FEF7E6
:1021400089FE94E803000C4A0123CDE903238DF8AE
:10215000083005AB83E803009DF82430002123F00C
:10216000030302A8CDE907118DF82430FFF786FD9F
:102170000AB010BD0846FBE704DD000070B5044658
:1021800050680E46154610B1013004F009F96A682E
:102190002060531C636020B100F8016B29680BF0CC
:1021A0003FF8204670BD38B5054608680C4610B1AA
:1021B000486804F0F5F8626828606A6010B1216828
:1021C0000BF02EF8284638BD10B50446006808B15B
:1021D00004F0FEF8204610BD0B6810B504461BB98C
:1021E000C0E90033204610BD4A68591C013AFEF789
:1021F00031FEF7E730B50C4689B00168019289B12C
:10220000094D0122CDE906528DF81420426803A839
:10221000FEF720FE019B03AA05A92046FFF73CFE1E
:1022200009B030BD0846FBE705DD000010B50168C8
:102230008AB0E9B16C4642682046FEF70BFE94E88E
:1022400003000C4A0123CDE903238DF8083005ABC8
:1022500083E803009DF82430002123F0030302A843
:10226000CDE907118DF82430FFF708FD0AB010BD45
:102270000846FBE705DD000038B5044608460D4674
:102280000BF05EF9C4E90050204638BD10B5C0E936
:10229000001204461946029A0830FEF79EFE039B80
:1022A000E36110BD0023C0E900310846FFF757BACB
:1022B0002DE9F84F06460D463468002C59D0706859
:1022C000FFF74FFA80467068FFF75AFA4046002140
:1022D0002368DB0706D5D4E902321B1A62EB010240
:1022E000C4E90232246A002CF2D13168A246A64623
:1022F0004FF0FF320023204605F0040BD1F800C058
:10230000BBF1000F16D01CF0040F13D025F004050C
:10231000D6460C460420236ABEF1000F26D1336056
:1023200000232362D4E90631984725F00405C3E76A
:102330006146E3E71CF0010C0AD0D1E9028990451F
:1023400079EB030704DA42464B466046D6460C4614
:10235000D1F820C08A46BCF1000FE9D14CB1012A66
:1023600073F10001D7DB1046BDE8F88FCEF82030BE
:10237000D6E74FF0FF30F7E7F8B505464068D1E9FA
:1023800004670C46FFF7EDF92B68361847F1000794
:102390000022C4E9026722620BB92C60F8BD1A461C
:1023A0001B6A002BFBD11462F8E738B503680546B9
:1023B000144613B90023236238BD934207D119B1E3
:1023C000D2E9063102209847236A2B60F2E71D46C6
:1023D0001B6A002BEED0A342F9D119B1D4E9063122
:1023E00002209847236A2B62E4E78361009B016027
:1023F0000021C0E90421C0E907317047C0E900129B
:102400008360704738B504461546FEF773FE2046D4
:10241000FEF770FE2146024605F5F470BDE838402F
:10242000FEF726BE2DE9F04103F198050746284640
:1024300014460E46FEF75EFEA0420DD82846FEF773
:1024400059FE0123044633702A462346294638465E
:10245000BDE8F041FEF7AABD0023F4E710B514462D
:1024600061B902F5F470FEF7C4FD234604F1C8011A
:102470002046034ABDE8104000F0A2BB10BD00BFDB
:10248000E125000007B501220DF10701FEF73AFE34
:102490009DF8070003B05DF804FB00002DE9F3414F
:1024A000164600F1B408002204460F464046114685
:1024B0001D46FEF767FD424639462046144B009400
:1024C00000F032FB0023C4E91E33224604F1C000B1
:1024D0001049C4F8AC60FEF79EFE224604F1C80025
:1024E0000D49FEF7A5FE04F1D00104F1D40002224B
:1024F000FEF773FD4FF4807204F1E80104F5F47007
:10250000FEF76BFDC4F8B05002B0BDE8F08100BF2B
:1025100051250000252400000524000010B50023EB
:1025200080F880300123044680F8A83000F5F4706C
:10253000FEF75FFD234604F1C8012046034A00F080
:102540003FFB2046BDE8104000F00CBBE125000039
:10255000D06F012370B582F880300D46144620B14B
:102560000369816998470023E3672DB9D4E92B31CA
:102570002046BDE8704018472046BDE87040FFF790
:10258000CDBF00F000BB836F00F1780213B911607A
:10259000CB61704703F11C02DB69F7E737B50446EE
:1025A00000F1D4052846FEF724FDB4F8A430ADF8B8
:1025B000063002220DF106012846FEF722FD2946CB
:1025C00004F19800FEF7ECFC044A234604F1C00134
:1025D000204600F0E4FA03B030BD00BF5D240000E7
:1025E000F7B514460E46002940F09E800A4604F1D5
:1025F0009800FEF7C7FC04F5F4754FF41043A4F8F7
:10260000A4302846FEF776FD032809D84FF4DC43B2
:102610002046A4F8A43003B0BDE8F040FFF7BEBFE9
:102620002846FFF72FFF84F884002846FFF72AFF8B
:1026300084F885002846FFF725FF84F886002846A1
:10264000FFF720FF04F1880784F8870032463146FF
:102650003846FEF797FCC4F894602846FEF74AFD1A
:1026600001280ED92846FFF70DFF06462846FEF73B
:1026700041FD864223D833462A4629463846FEF78E
:1026800095FC2846FEF736FD20B12846FFF7FAFEF6
:10269000C4F894002846FEF72DFD80B994F88430E4
:1026A000002B32D194F88530A42B37D194F88630A2
:1026B000042B27D1A56F2DB946F68223A8E74FF446
:1026C000CE43A5E73846FEF715FDAB68984217D80C
:1026D000696801913846FEF70DFD019902463846BA
:1026E000FEF76FFD60B1E06F10B103698169984733
:1026F000EB68A969E567284698474FF4104387E7D8
:10270000ED69D8E7E36F002BD6D0E06F0028D3D077
:10271000D0E9053103B0BDE8F0401847E36F002B66
:10272000F3D14FF4DA4373E703B0F0BD8360009B4D
:10273000C360019B0361029B4361039B8361002390
:10274000C0E90012C361704707B501220DF107010E
:10275000FEF7D8FC9DF8070003B05DF804FB436862
:1027600070B504460D462BB1D0E9033214219847C9
:102770000023636094F82C3003B970BD002384F803
:102780002C302946D4E91C322046BDE87040184759
:10279000024A0368C0E91C21DB6A1847712900005E
:1027A0002DE9F34190F82C30042B044606D129B1D1
:1027B00090F82A30032B01D1836873B104F13405FA
:1027C0002846FEF716FC94F82C30022B08D0042B78
:1027D00058D020682146FFF7DBFF02B0BDE8F0814A
:1027E000A26B636C216C9B1A626B521A9B1A042BAE
:1027F000EFD9E36E5B68012205330DF1070128462E
:102800008DF80730FEF7FDFB782301220DF107015B
:1028100028468DF80730FEF7F4FB802301220DF1E6
:10282000070128468DF80730FEF7EBFBE223012273
:102830000DF1070128468DF80730FEF7E2FB002373
:1028400001220DF1070128468DF80730FEF7D9FB6C
:10285000E36EE3630323206884F82C3003681E6969
:1028600094F82A300B2B0BBF0123012219460023B9
:1028700014BF11460022B0472068036829469B69AF
:102880009847A6E794F82A305A1E072A51D8DFE85D
:1028900002F0045004500B43503E94F82820002AC4
:1028A0003AD1A268002A4ED0052B94F8296004F191
:1028B0001C0711D0A06878B1236B01228DF8072086
:1028C000013B0DF107023946FEF7A8FC9DF80730E1
:1028D00083F0010384F8283094F82830002B14BFCB
:1028E000122302230422002E18BF43F00103002606
:1028F00084F82A20B04601220DF1070128468DF800
:102900000730FEF77EFB3FB3E7630523A3E7A2682A
:10291000CAB194F82820C5E794F829300026092286
:1029200084F82A20002B14BFA323A223B0463746E5
:10293000E1E70A2B07D10B23002684F82A30B046A2
:102940003746C223D7E7022384F82A300A264FF0FD
:1029500001080027F223CEE7B8F1000FD5D00122FD
:102960000DF1070128468DF80760FEF74AFBCCE71A
:10297000F0B5152985B006460D46144626D092F8C6
:102980002A300B2B24D100254FF480731385C2E924
:102990000155C2E90355C2E9055582F82A5004F1F0
:1029A0004801202204F13400FEF717FB206884F868
:1029B0002C500368A566012211469B682563984741
:1029C000012184F82C102046FFF7C9FE05B0F0BDA8
:1029D000036800219B69984733681F69002301221F
:1029E00019463046B8470B2D01D10021EBE725B140
:1029F00021463046FFF7CCFEE8E733683046DB6916
:102A000098470546FEF776FB0028F1D02946A566D3
:102A100001A8FEF7BCFA01A8FFF796FEE02894F89B
:102A20002C5023D1012DE3D1A06EFEF763FB0128CA
:102A3000DED9A06E2946FEF79FFBA06EFFF784FE4D
:102A4000C0F3071004280AD8C00010302063022306
:102A500084F82C3001212046FFF7A2FEB6E70728B4
:102A60009ABF400160384FF48070EFE7022DBFD964
:102A7000A06EFEF73FFB0028BAD0A06EFFF764FE01
:102A8000C0F3871102292FD003293CD00029AFD1F0
:102A900094F82930A66E013303F0010384F829303D
:102AA000032384F82C3094F82830C0F3001533B990
:102AB000A36823B1D4E90532A16020469847606835
:102AC00058B185F001023146FEF7B5FB2DB9D4E9C6
:102AD00003326560294620469847032384F82A304C
:102AE00084F828500423B3E794F8292000F0010368
:102AF0009A4203D0062384F82A30F3E7C30654BF72
:102B000008230523F7E700F03005302D0AD1A06E29
:102B1000FEF7F0FA00283FF46BAFA06EFFF714FE4B
:102B20000123E8E70A23E6E738B5C0E91B23049B45
:102B30004367002504464FF480730160C0E90155E6
:102B4000C0E90355C0E90555038580F82A5000F116
:102B5000480120223430FEF740FAA56684F82C5054
:102B6000256338BD012210B5044680F82C2000688A
:102B7000036811469B689847206822460021FFF7AA
:102B8000F7FE002010BD10B50446006803681B6BFB
:102B9000984720460021BDE81040FFF7E0BD38B55A
:102BA00044685CB9C0E9052390F82C308160042B9F
:102BB00002D12146FFF7F4FD204600E00F2038BD8A
:102BC00010B5846824B9C0E903234160204610BDD4
:102BD0000F20FCE72DE9F0470E4601F1340786B0DF
:102BE000814606F14C053846FEF707FA2846FEF7FF
:102BF00004FA306A0830FEF700FA336AD9F8004068
:102C00000833736594F88530B02B2AD0D62B53D077
:102C1000A42B40F0A38094F8863013F0FD0F07D169
:102C200004F188052846FEF765FA0228024604D01A
:102C300046F68223A4F8A4306AE001A92846FEF7EC
:102C400061FABDF804304AF24342934204D1A6F837
:102C500060304FF41043EDE74EF203129342E7D198
:102C6000F5E7B6F860304AF24342934204D04EF2A0
:102C7000031293426FD13D46B4F88660D4F8947045
:102C80002846FEF737FA76BAB6B2864263D831469E
:102C90002846FEF771FA2846FEF72CFA874203D938
:102CA0002846FEF727FA07463B462A46294604F1FE
:102CB0009800FEF77BF9CCE7B6F860204AF2434370
:102CC0009A4248D104F1880A5046B4F88680FEF74B
:102CD00011FA07462846FEF70DFA98FA98F81FFAF7
:102CE00088F8804537D841462846FEF745FA2846F9
:102CF000FEF700FA874203D92846FEF7FBF907469C
:102D00006FB94FF41043A4F8A430012386F8623061
:102D1000D9F80000FFF742FC06B0BDE8F08729466D
:102D200001A8FEF734F901A8FEF75CF9059A029BA9
:102D3000A2EB0308019A049BD21AA8EB0208B8453B
:102D400028BFB8464246514601A8FEF791F9A7EBC5
:102D50000807AD68D4E74FF4CE436BE74FF4DA438E
:102D600068E773B50C4601F1340004F14C05FEF739
:102D700040F92846FEF741F9206A0830FEF739F994
:102D800094F86230FBB1284602220DF10601FEF7ED
:102D9000B9F9206ABDF80630866985684169C2685C
:102DA0006C1AB21A121B93420DD2B34205D81944C1
:102DB0008D4234BF1B1B0023C36043681BB1C26933
:102DC00000F10801984702B070BD73B5086A0C465F
:102DD00004F134050830FEF70CF92846FEF709F92E
:102DE0000F2302220DF106012846ADF80630FEF74A
:102DF00008F9202301220DF1060128468DF806303E
:102E0000FEF7FFF8FB2302220DF106012846ADF87C
:102E10000630FEF7F6F8F72302220DF106012846E8
:102E2000ADF80630FEF7EDF8042301220DF106019E
:102E300028468DF80630FEF7E4F806230DEB030173
:102E4000012228468DF80630FEF7DBF84AF24343AC
:102E500002220DF106012846ADF80630FEF7D1F842
:102E6000226AD16893695B1A916852698A1A9B1A1F
:102E7000023302220DF106012846ADF80630002685
:102E8000FEF7BFF801220DF1060128468DF8066015
:102E9000FEF7B7F8284601220DF106018DF806600D
:102EA000FEF7AFF8206A03681BB1C26900F10801A0
:102EB000984704F14C05022204F148012846FEF728
:102EC0008CF8206A0830FEF715F90222ADF80600EA
:102ED0000DF106012846FEF794F80025226A516993
:102EE00093685B1AD16802F1080092690B449A4218
:102EF00005D1A4F8605084F8625002B070BD012280
:102F00000DF106018DF80650FEF77BF8E6E70000AC
:102F10007FB504460D46164600F124010F223430D9
:102F2000FEF75BF804F1480104F14C000222FEF7C1
:102F300054F80023A4F8603084F862300A4B0293FE
:102F40000A4B01930A4B009329462046094A266200
:102F500003940723FFF7EAFB2146284604B0BDE8A7
:102F60007040FFF710BB00BFD52B0000632D0000A1
:102F7000CB2D000006DD0000C0F8B410704700F54E
:102F8000E67070474B1E082B28BF082180F8EE1111
:102F9000704701F0070180F8EC11704790F8ED01DF
:102FA0007047704710B4D0E91C4223465DF8044BCB
:102FB000184782B01FB50446CDE9022100F1B801DF
:102FC000042203A807930AF0FBF804F1BC0130B90E
:102FD000042202A801910AF0F3F8019980B1039B41
:102FE000C4F8B830042202A80AF0EAF828B1029B1B
:102FF000C4F8BC30204600F08DFF00232371E36647
:10300000DDE90701C03484E8030004B0BDE81040E6
:1030100002B070470423024980F8C83001F020B89C
:10302000A52F000001F0ACB910B5054A90F8C81002
:10303000044601F059FD042384F8C83010BD00BFD8
:10304000A52F000000F178020121A430FFF7ADB9EF
:1030500049B11AB1042380F8C83070470BB103237B
:10306000F9E70223F7E70AB10523F4E70123F2E7C2
:1030700010B50A46044629B1BDE8104030220121AE
:1030800001F038B8012101F035F80121204601F0A6
:1030900061F8C306F9D410BD38B504460D4601F0F9
:1030A00005F994F86C3013F0E00F12D003F01F0311
:1030B000A91E84F86C3007290BD8DFE801F0040A58
:1030C0000B10040A0B1094F86C3043F0200384F8C2
:1030D0006C3038BD94F86C3043F04003F7E794F857
:1030E0006C3043F08003F2E700F5F0700A4609B94E
:1030F000FDF748BFFDF74BBFF8B5044601F047FDAB
:103100004FF4807204F1CC0104F5E670FDF765FF21
:103110004FF40063A4F8EC31082300254FF0FF368C
:1031200084F8EE310427254B23602046C4F8B850BC
:10313000C4F8BC50C4F8B46084F8C87000F0D0F88B
:10314000204600F0D3FF204600F03BF80F21204638
:1031500000F0B3F83146204600F0BAF8204600F0FF
:10316000E3FF7F223946204684F8FC5100F0C2FF7D
:103170001F220521204600F0BDFF204600F022F866
:103180002946204600F099F83146204600F0A0F884
:10319000204601F083F941F292000AF065F93721E7
:1031A000204600F0D7FF822806D04F30C0B2022858
:1031B00034BF28463846F8BD2846FCE710DD00003D
:1031C0007047704780220A2100F094BF08B50A2199
:1031D00000F0C0FFC0F1400008BD2DE9F8430E46E5
:1031E0000746FFF7F3FF05463046FDF783FFEDB2D4
:1031F00085422C464FF0090128BF0446384600F0AE
:10320000C3FF0CB9BDE8F8833046FDF773FF002813
:10321000F8D03046FDF7CFFFA04216D83046FDF774
:10322000CAFF05463046D7F8A080FDF7BEFFD8F8A4
:103230000830D8F8009001462A460920C847294698
:103240003046FDF799FF641BDBE72546EAE708B542
:103250000A2100F07FFF08BD2DE9F0410C4607462A
:10326000FFF7F5FF65682369E2685B1B2568AD1A07
:10327000C0B25D1B854228BF05460921384600F0D3
:1032800083FF0DB9BDE8F081D4E900012669E26849
:10329000761A821AB61AF5D0AE42D7F8A03028BFF7
:1032A0002E460144D3E9018332460920C047314606
:1032B0002046FDF7D0FEAD1BE3E70A46012100F0F2
:1032C00019BF08B5012100F045FF00F00F0008BD4F
:1032D00010B504462046FFF7F4FF0028FAD110BDD0
:1032E0007047D0F8F4311847D0F80C32184790F8EE
:1032F000BC2090F8B800C2F30011C2F3C0030B4326
:10330000C2F340110B43C2F380110B4343EAD010C8
:10331000C2F300031843C2F34003184340EA92008B
:1033200000F00100704790F8073213B10021FFF759
:10333000DBBF0921FBE707B501220DF10701FDF70E
:10334000E1FE9DF8070003B05DF804FB30B50446CC
:1033500085B019B1FFF7C8FF05B030BD90F8ED3169
:10336000082B01D00E21F5E790F8BC2012F02A0FAF
:1033700002F0C4034ED04BB1122100F0EBFE10F06E
:1033800003030CD10221204600F090FF04F5E675FE
:103390002846FDF7AFFEA0B90E212046DAE7022B42
:1033A0000DD100F0700020280CBF0521042120461B
:1033B00000F07CFF94F8BC3013F0C00F2ED1042134
:1033C000EBE766221C21204600F094FE294601A866
:1033D000FDF7DDFD01A8FFF7AEFF94F8BC309906BC
:1033E00008D5F02806D194F86C3043F0200384F817
:1033F0006C3011E01A0706D5E02804D194F86C303F
:1034000043F00803F3E79B07D9D594F86C3043F0F9
:103410000203ECE7002BCDD10021BEE794F8C930C0
:10342000052B94F86C300CBF43F0800343F040034D
:10343000DDE707B501228DF807100DF10701FDF753
:10344000E0FD03B05DF804FB70B5044600F5E675D9
:103450002846FDF7CEFDA36E182202FB034300268B
:103460009E6128462621FFF7E4FF20460721FFF74B
:1034700089FD324631462046FFF7D4FD204604211F
:10348000FFF77AFD29462046FFF72EFE2046034A25
:10349000BDE87040042101F027BB00BFFD350000EE
:1034A00009B1FFF721BFFFF7CFBF000070B5054698
:1034B00000F5E6763046FDF79CFD95F8064244BBE4
:1034C00085F8044205213046FFF7B3FF2146304618
:1034D000FFF7AFFF95F80512002908BF082401F097
:1034E000070121433046FFF7A4FF01221146284679
:1034F000FFF798FD28461221FFF73EFD314628468A
:10350000FFF7F2FD2846064ABDE87040042101F0AD
:10351000EBBA210141F0050101F0F501E2E700BF3E
:103520007939000090F8053290F8061201229A408D
:1035300091420CDB90F804220AB9FFF7F4BE032B8A
:10354000FBD8013380F80532002380F80632FFF7FC
:10355000ADBF000038B5044600F5E6752846FDF716
:1035600048FD94F8051249006F39C9B22846FFF7A3
:1035700060FF94F80B3203F11001C91003F0070348
:1035800043EA011101F0F7012846FFF752FF94F8D2
:103590000B32C3B113F0070218BF012202EBD302B2
:1035A00004F206212846FDF743FD94F80B1220464D
:1035B00001F00701FFF7E6FC94F80B12204601F03A
:1035C0000701FFF7E6FC002211462046FFF72AFD1F
:1035D00020461E21FFF7D0FC29462046FFF784FD38
:1035E00020460222042100F085FD2046024ABDE863
:1035F0003840042101F078BAA137000038B50446FC
:1036000031B10C2904D00921BDE83840FFF76CBE68
:103610002046FFF7B4FC0546FDF76CFD0228024684
:1036200002D00E212046EFE7A36E182103FB011103
:10363000053128462144FDF77FFD4FF48072A4F840
:10364000042204F20622002384F80B32C4F8063266
:1036500013712046BDE83840FFF77CBFF8B504463B
:103660000D46FFF78CFC07462DB129462046BDE8E4
:10367000F840FFF739BEFDF73DFD012801D00E21CE
:10368000F4E7A66E3846FFF756FE1823A26E06FB37
:103690000336264402FB033121443071097911F0CD
:1036A00004010FD094F8053284F80B52013384F8EA
:1036B0000532C4F8065284F80A522046BDE8F840A4
:1036C000FFF748BF03FB02429160A26E02FB03308A
:1036D0002044511C0079450641BF03FB02431D7A7B
:1036E00045F020051D7283060AD594F8B8301F07EF
:1036F00006D5182303FB02431D7A45F008051D7209
:1037000010F0600F0AD194F8B8309E0706D5182340
:1037100003FB0243187A40F002001872182303FBDF
:1037200002431B7A1D0705D4980603D49B0701D4D6
:1037300009219BE7182303FB024294F8C0509368C9
:1037400015F00105C4E91A1325D194F8043213B316
:10375000032920D804F5E6763046FDF74AFC3046CA
:103760005021FFF766FE29463046FFF762FE2A46E3
:1037700020460121FFF756FC20461E21FFF7FCFBE7
:1037800031462046FFF7B0FC2046044ABDE8F84029
:10379000022101F0A9B9002168E700BFA1340000AF
:1037A0002DE9F34104460E46FFF7E9FB074636B123
:1037B0000C2E04D031462046FFF796FD75E094F8B4
:1037C0000B820C2EC8F128085FFA88F50FD10E2164
:1037D000204600F0BFFC10F01F0208BF2022013A73
:1037E000D2B242453EBF012384F80432154615F09B
:1037F000070218BF0122384602EBD506FDF77AFC16
:10380000B04205D20E21204600F0A4FC0E21D2E7E2
:1038100094F80B120023324638460DEBD101009389
:103820008DF80430FDF788FC94F80B3202AA02EB05
:10383000D30003F0070110F8086CFF2202FA01F12F
:1038400031402B4400F8081CDBB202A901EBD30580
:10385000594201F007010A4115F8081C84F80B329F
:103860000A4005F8082C04F20622D808694604F23A
:103870000B271546167811F801CB46EA0C0602F81C
:10388000016B9742F6D1272B12D82118012203F0A1
:103890000700824091F806020133024381F80622B4
:1038A000204684F80B32FFF755FE02B0BDE8F081E8
:1038B00094F8062294F8073294F8081294F8090252
:1038C00053404B4094F80A124340994201D00C21D6
:1038D00071E7882A94F805323BD1032B96D0A26E6B
:1038E000B4F8070218214A43013B0C3203EB4303AF
:1038F0001344E218E05294F809329370A36E01FB6E
:1039000003439A69033204F5E6769A613046FDF77F
:1039100070FB94F8051249006F393046C9B2FFF7C1
:1039200088FD30467021FFF784FD29463046052288
:10393000FDF77EFB012211462046FFF773FB31465F
:103940002046FFF7D1FB0B4A0421204601F0CCF8BA
:10395000ABE7A26ED4F80602013B182103EB430348
:1039600001FB02332344D860A36E01FB03439A6931
:103970000432C8E75D3600002DE9F0410E460446EA
:10398000FFF7FDFA0D2E074604D843F28103F340FA
:10399000D90705D420460E21BDE8F041FFF7A4BCAD
:1039A00094F80632013384F80632A6F10C03012B99
:1039B00007D8012384F804322046BDE8F041FFF720
:1039C000B1BD002EF8D14FF0010884F80782FDF751
:1039D00091FB0C28DED13846FFF7ADFC5028D9D139
:1039E000A36E182505FB034338469E60A16E69430C
:1039F00062180C31137A43F010031372214404222D
:103A0000FDF79AFBA16E05FB0141042210313846F7
:103A1000FDF792FBA16E05FB0141032214313846EC
:103A2000FDF78AFBA36E05FB03454344AA68E266E3
:103A300094F8C020A366D20733D494F804223AB98C
:103A400094F8051294F8062208FA01F8424528DA9B
:103A5000032B26D804F5E6752846FDF7CAFA284652
:103A60005021FFF7E6FCA16E1823013903FB014149
:103A7000284604220C31FDF7DBFA012211462046CC
:103A8000FFF7D0FA20461E21FFF776FA2946204696
:103A9000FFF72AFB2046054ABDE8F041042101F06A
:103AA00023B82046BDE8F041FFF73DBCDD3A0000F9
:103AB00037B500F1780504460A460090064B2846C3
:103AC0000121FEF792FC294604F1A40003B0BDE8F1
:103AD0003040FEF751BC00BF393E000038B5044607
:103AE00029B120460E21BDE83840FFF7FDBBFFF7A6
:103AF00046FA0546FDF7FEFA0128F2D12846FFF7FF
:103B00001AFC0028EDD12046BDE83840FFF70ABD79
:103B10002DE9F74304460D460F260C274FF0090800
:103B200094F8F091B9F1000F2FD12046FFF7DFFB99
:103B300018B9042384F8F031F2E74FF0010984F852
:103B4000F0911C21204600F005FB4207E8D42046F6
:103B500000F0A4FC94F8BC2012F02A0F02F0C40379
:103B60000FD063B14946204600F0A0FBAF4AD4F81D
:103B7000C410204600F0EEFC03B0BDE8F083022143
:103B8000F1E7002BF2D00421EDE7B9F1010F25D1C7
:103B90002046FFF7ACFB08B90023CBE7072DC8D0C0
:103BA00025B129462046FFF79CFBE5E7022384F870
:103BB000F0319E4BC4F80C3294F86C30257103F050
:103BC00010034FF0FF3184F86C302046FFF7D4F932
:103BD000974A4946204600F087FFCDE7B9F1020F2A
:103BE0000DD10B2D06D1012384F8F031204600F0D1
:103BF00055FCBBE7002DD4D184F8C950D1E7B9F109
:103C0000040F20D194F8B820C2F30011C2F3C0030E
:103C10000B43C2F340110B43C2F380110B4343EA41
:103C2000D213C2F300010B43C2F340010B4343EA3A
:103C30009203DB07B0D505237C4984F8F031204698
:103C400000F03CFC98E7B9F1050F09D1002DA8D18F
:103C500094F8B1300BB901236CE7062384F8F031F6
:103C600094F8F091B9F1060F15D194F8B83013F02B
:103C70002A0F02D184F8F08152E7012323714946CB
:103C8000204600F013FB072384F8F0310F21204673
:103C9000FFF70EFF70E7B9F1070F0CD1082384F886
:103CA000F031624BC4F80C32002384F8FC3120461A
:103CB000FFF7CAFB60E7B9F1080F0FD1092DD9D082
:103CC00045B994F8C030980702D4A36E042BD1D123
:103CD000002167E7152DCDD1152163E7B9F1090F53
:103CE0000ED194F8B830D90602D484F8F07117E7F1
:103CF000012323710721204600F0D8FA0A23C3E7E5
:103D0000B9F10A0F10D10B2384F8F031474BC4F8F6
:103D10000C32002384F80532A4F8063284F8FC3112
:103D20002046FFF7C3FB27E7B9F10B0F0DD1092D93
:103D3000DBD03DB994F8C0309A07C9D4A36E042BE8
:103D4000D3D1C5E7152DD0D1C6E7B9F10C0F12D1EB
:103D500094F8B83013F0440F02D184F8F061DFE634
:103D6000012323710821204600F0A0FA0D2384F8D6
:103D7000F03114218BE7B9F10D0F3AD10E2304F580
:103D8000E675002684F8F031284BC4F80C3228463A
:103D900084F8FC61FDF72DF906212846FFF749FB61
:103DA00031462846FFF745FB4FF6FF7302220DF11F
:103DB00006012846ADF80630FDF723F931462846BE
:103DC000FFF737FB07212846FFF733FB0122114697
:103DD0002046FFF727F949462046FFF7CDF8294648
:103DE0002046FFF781F9204600F01EFB114A04210E
:103DF000F0E6B9F10E0F0ED1092DAED045B994F809
:103E0000C0309B073FF564AFA36E042BA5D15FE7DD
:103E1000152DA2D160E7B9F10F0F7FF481AEA36E2B
:103E2000002B7FF455AF0921BCE600BF113B000019
:103E30004D3300004D3E00000346084613F00201DA
:103E400002D01521FFF74DBAFFF762BE2DE9F04110
:103E500004460E46FFF793F8054686B9FDF74AF982
:103E600068B1182637462846FDF744F9002845D0A2
:103E70002846FDF73FF9132807D00E2100E009215D
:103E80002046BDE8F041FFF72FBA2846FFF753FA66
:103E900080462846FFF74FFAB8F1120FEDD10128FE
:103EA000EBD1A16E06FB014108220C312846FDF73B
:103EB00043F908212846FDF75FF92846FFF73BFA4A
:103EC00010F01F00CFD1A36E07FB03439860A36ED1
:103ED00007FB0342117B012912D1517BFE290FD12F
:103EE000117A41F04001117206FB034201339268DE
:103EF000E26694F8C020A366D20708D50021BFE788
:103F000006FB03410A7A42F004020A72ECE7032B33
:103F1000F4D8A8E790F8BC3013F0EE0F70B5054662
:103F200000F09D8005F5E674FFF74CF92046FDF79B
:103F300060F804212046FFF77CFA00212046FFF7B5
:103F400078FA00212046FFF774FA00212046FFF797
:103F500070FA00212046FFF76CFA95F8BC3013F098
:103F6000080118BF20219B0648BF41F040012046B0
:103F7000FFF75FFA95F8BC1011F0C00F5ED0012179
:103F80002046FFF756FAFE212046FFF752FA062692
:103F900000212046FFF74DFA013EF9D1FF212046CE
:103FA000FFF747FAFF212046FFF743FA3146204644
:103FB000FFF73FFA31462046FFF73BFA31462046ED
:103FC000FFF737FA95F8BC3003F0C403042B3AD15D
:103FD00001212046FFF72DFA01212046FFF729FA9B
:103FE00000212046FFF725FA95F8BC3003F0C40302
:103FF000042B2ED112212046FFF71BFAFC2120466C
:10400000FFF717FA20460021FFF713FA214628464A
:10401000FFF7E3F828460121FFF74FF94FF0FF3192
:104020002846FFF755F928460221FFF746F92846AA
:104030004FF0FF31BDE87040FFF74AB911F00401BD
:1040400018BF02219CE731462046FFF7F2F93146BE
:10405000C3E7FF212046FFF7ECF9FF21CFE770BD52
:10406000002310B5C0F8F4110371C366836680F8AD
:10407000F0310446FFF73BF9F0B994F8B820C2F3E9
:104080000011C2F3C0030B43C2F340110B43C2F350
:1040900080110B4343EAD213C2F300010B43C2F376
:1040A00040010B4343EA9203DB0705D42046052178
:1040B000BDE81040FFF715B920460021BDE81040CB
:1040C000FFF726BD73B561F07F038DF80730D0F898
:1040D000A03004461E689B680D4601220DF10701C1
:1040E0000020B04784F8B05002B070BD002380F8C3
:1040F000B030704737B590F9B0308DF807200C46D6
:10410000B3EB141F05464FEA111101D0FFF7DAFF98
:10411000D5F8A03001221D689B680DF1070104F05D
:104120000F00A84703B030BDF8B500210546FFF7E2
:10413000C9FF064E064F092417F8012B16F8011B7C
:104140002846FFF7D7FF013CF6D1F8BD4CDD000053
:1041500055DD000037B590F9B0300C46B3EB141FB5
:1041600005464FEA111101D0FFF7ACFFD5F8A0309A
:1041700004F00F00D3E9015301220DF10701A84714
:104180009DF8070003B030BD90F9B0200B46B2EBAC
:10419000131F4FEA111101D0FFF794BF7047D0F8F9
:1041A0000032184738B5CAB20C4602210546FFF75F
:1041B000A1FF220A42F0800203212846FFF79AFF5E
:1041C000A5F8CA4038BD10B5CAB204460421FFF7AD
:1041D00091FF20460222BDE810400521FFF78ABF6B
:1041E00038B50C460546002201212046FFF782FF24
:1041F00001212046FFF7AEFF10F01001F8D1204654
:10420000FFF7D0FF4FF400712046FFF7DCFFAB074C
:1042100005D515212046BDE83840FFF7C0BF15F091
:10422000010118BF0721F5E738B50C4620460421E7
:10423000FFF790FF052105462046FFF78BFF0002A0
:10424000B4F8CA3000F4F85005F07F050543204665
:104250001D4000F0BBF900224FF6FF7311462046C7
:1042600000F0C4F900212046FFF79CFF40F2012135
:104270002046FFF7A8FFAB050CD5152100222046EC
:10428000FFF738FF002184F8B1102046BDE8384020
:10429000FFF785BF15212046FFF75CFF10F04001B6
:1042A0000ABF0123012184F8B130EEE72DE9F8437C
:1042B00090F8C9308B4204460D464CD04F1E082F53
:1042C00024D8DFE807F02E05232A2C26282A2C00E4
:1042D000244EDFF8A89006F1FF38053618F8012FB4
:1042E00019F8011B2046FFF705FF4645F6D140F2BD
:1042F0000113052D84F8C950A4F8B23013D8032D4A
:1043000002D8FFB2012F01D8002210E00420BDE83E
:10431000F883154EDDE7154EDBE7154ED9E7154E50
:10432000D7E7154ED5E7063D032DEFD810220C2117
:104330002046FFF7DFFE94F8C930062B4FF0150139
:1043400020460AD1FFF706FF40F04000C2B2152117
:104350002046FFF7CFFE0020D9E7FFF7FBFE00F075
:10436000BF02F4E782DD000070DD000076DD0000B2
:1043700064DD00006ADD00007CDD00005EDD000021
:10438000F8B590F8C930013B04460F461646082B95
:104390003BD8DFE803F038053A34363032343600A3
:1043A0001B4D94F8B230BB420FD06A78002F14BF77
:1043B0006FF07F03002302F07F021A43D2B2122172
:1043C0002046FFF797FE84F8B27094F8B330B342FA
:1043D0000FD0AA78002E14BF6FF07F03002302F0E5
:1043E0007F021A43D2B213212046FFF783FE84F8DE
:1043F000B36000200AE0074DD3E7074DD1E7074D32
:10440000CFE7074DCDE7074DCBE70420F8BD00BF50
:1044100082DD000070DD000076DD000064DD00005C
:104420006ADD00007CDD000008B590F8C930013B72
:10443000082B24D8DFE803F02105231D1F191B1DBD
:104440001F00104B9A7890F8B330002B14BF6FF018
:104450007F03002302F07F021A4342F00402D2B22B
:104460001321FFF747FE002008BD074BEAE7074B83
:10447000E8E7074BE6E7074BE4E7074BE2E70420F2
:10448000F2E700BF82DD000070DD000076DD000095
:1044900064DD00006ADD00007CDD000010B5002254
:1044A00004461521FFF726FE802214212046FFF73F
:1044B00021FE002384F8B13010BD000037B504465A
:1044C000C0F8001240F20121FFF77DFE42F21B13FB
:1044D00003220121204600F089F840F20121204604
:1044E000FFF760FE0F2215212046FFF703FE07218C
:1044F0002046FFF72FFE430718D50025204684F8F5
:10450000B15000F063F84FF6FF732A462946204663
:1045100000F06CF8204640F20121FFF754FE2946D6
:10452000204603B0BDE83040FFF739BE04F17805FE
:104530002846074B00944FF0FF320521FDF755FF49
:10454000294604F1A40003B0BDE83040FDF714BFD4
:104550002942000073B5C0F8002204460D464FF40E
:104560000071FFF730FE4FF400712046FFF71AFE8E
:1045700007212046FFF7EEFD43070FD52046002117
:10458000FFF710FE20464FF40071FFF71CFE0021DC
:10459000204602B0BDE87040FFF701BE204604F19E
:1045A000780630220121FFF7A5FD3046064B009426
:1045B0002A460521FDF719FF314604F1A40002B097
:1045C000BDE87040FDF7D8BEE141000090F8C92079
:1045D000062A034602D0083A012A04D890220C2168
:1045E0001846FFF787BD80220C21FAE7F8B51E4672
:1045F00004460F461546FFF7E9FFF2B220462D218B
:10460000FFF778FD320A20462C21FFF773FDEAB24E
:1046100020462B21FFF76EFD002FC5F3032514BFA5
:104620006FF07F0200222A43204602F08F02BDE88D
:10463000F8402A21FFF75EBDD0F8F831184738B5A9
:10464000CAB205460C460421FFF754FD220A28464B
:104650000521BDE83840FFF74DBD38B501F07F02B8
:104660000C4602210546FFF745FDC4F3042242F043
:10467000800203212846FFF73DFDA5F8CA4038BD5A
:1046800038B504210546FFF765FD05210446284697
:10469000FFF760FD030203F4F853B5F8CA0004F015
:1046A0007F041C43204038BDF7B510F002050C46CE
:1046B00015D000212046FEF700FE002184F8FC11F1
:1046C0002046FFF7CAFF41F67F712046FFF7B7FF8C
:1046D0001521204603B0BDE8F040FFF7ADBF10F054
:1046E000010710D029462046FEF7E7FD294620465F
:1046F00084F8FC51FFF7B1FF41F67F712046FFF7C8
:104700009EFF0721E5E70846FFF7BAFF10F0020613
:10471000054613D002212046FFF791FF06212046CF
:10472000FFF718FD002843D000F0FD0008282ED127
:1047300025F00205ADB245F02005012615F0280F41
:1047400079D004F5E6712046FEF786FDD4F8D8212D
:10475000D4F8CC319B1AD4F8D0211344D4F8DC21FE
:104760009A4227D12046FEF772FD18B30021204659
:10477000FEF7A3FD002184F8FC112046FFF76DFF32
:1047800041F67F712046FFF75AFF0621A1E739461F
:104790002046FEF792FD3946204684F8FC71FFF76B
:1047A0005CFF41F67F712046FFF749FF0D2190E73E
:1047B0000646C3E7290703D508212046FFF73FFF38
:1047C000AA0638D520212046FFF739FF0C212046C4
:1047D000FFF7C0FC10F0070008BF082084F8ED01C7
:1047E00000212046FFF739FF28212046FFF727FF49
:1047F00094F8FC3103F0FD02012A12D10821204671
:10480000FFF7A8FC10F010010DD184F8FC11204630
:10481000FFF723FF41F67F712046FFF710FF0E21BF
:1048200057E7052B02D1042384F8FC310EB9314639
:104830004FE70C214DE7EB0510D500212046FEF790
:104840003CFD002184F8FC112046FFF706FF41F6ED
:104850007F712046FFF7F3FE0B213AE704F178055C
:104860002846074BD4F8B42000940521FDF7BDFD80
:10487000294604F1A40003B0BDE8F040FDF77CBD7B
:10488000A9460000F7B500F5F077B0F8CA50044625
:1048900038460E46FCF72EFC98B139462046FEF706
:1048A0009CFC3846FCF726FC05F00407C8B304213D
:1048B0002046FFF7C4FE27B945F004012046FFF764
:1048C000CCFEE6B194F8EC2194F8EE31120103F03D
:1048D000070302F070021A4394F8FC31023B012BEB
:1048E00024D80D212046FFF705FC04212046FEF7C1
:1048F000E4FC082384F8EE31002384F8EC3104F161
:10490000780528460D4B00944FF47A720521FDF787
:104910006CFD294604F1A40003B0BDE8F040FDF7AA
:104920002BBD002FCDD025F00401C7E742F0800257
:104930000D212046FFF7DEFBDBE700BF89490000C1
:1049400037B590F8C930052B04468CBF2A214FF4A7
:104950009571FFF782FE04F1780504F5E670FCF727
:1049600048FB2846074BD4F8B42000940521FDF7F6
:104970003CFD294604F1A40003B0BDE83040FDF73A
:10498000FBBC00BFA9460000F8B510F002050C46BC
:1049900014D000212046FEF790FC002184F8FC1181
:1049A0002046FFF75AFE41F67F712046FFF747FE8B
:1049B00015212046BDE8F840FFF73EBE10F0010685
:1049C00010D029462046FEF778FC2946204684F878
:1049D000FC51FFF742FE41F67F712046FFF72FFEA4
:1049E0000721E6E70846B1F8CA70FFF749FE10F460
:1049F0008071054610D031462046FEF75EFC3146F8
:104A0000204684F8FC61FFF728FE41F67F712046BE
:104A1000FFF715FE0B21CCE710F040063BD017F056
:104A2000040709D02046FFF718FE41F67F712046A3
:104A3000FFF705FE1321BCE739462046FFF70DFEC0
:104A400044212046FFF7FBFD94F8FC31022B18D0DF
:104A5000032B11D13A4620460D21FFF74BFB394677
:104A60002046FEF72AFC2046FFF76AFF20460D216C
:104A7000BDE8F840FEF721BC2046BDE8F840FFF74E
:104A80005FBF39462046FFF7E8FD28212046FFF7A3
:104A9000D6FD39468DE743070ED504F5F070FCF7D7
:104AA00029FB48B104212046FFF7C9FD31462046C5
:104AB000BDE8F840FFF7E6BE15F01001F7D002217F
:104AC0002046FFF7BCFD00212046FEF7F6FB002143
:104AD00084F8FC112046FFF7C0FD41F67F712046A7
:104AE000FFF7ADFD0D2164E738B50446C0F8F821A5
:104AF0000D46FEF767FB4FF4BF712046FFF79FFDA1
:104B000094F8C930052B0BD807212046FFF722FB6C
:104B100043070FD420460B21BDE83840FFF78CBD7A
:104B200094F8FC31AB4205D0042D03D10C21204672
:104B3000FEF7C3FB052D84F8FC510CD10021204663
:104B4000FEF7BBFB2046FFF7FBFE0C212046BDE82D
:104B50003840FEF7B2BB012D09D10D2100222046BD
:104B6000FFF7C8FA2046FFF7EBFE0D21EEE794F8B9
:104B7000C930052B20468CBF50214FF4A871FFF798
:104B80006CFD20460121BDE83840FFF77BBEC0F830
:104B9000A0101146A430FDF785BB70B50E46044643
:104BA000154604F073F9013609D02046002104F0BF
:104BB000B3F929462046BDE8704004F08BB970BDBA
:104BC00037B590F900300D46591C04D114491548E9
:104BD000202200F045FD0124AAB11F2B86BF124AF6
:104BE00003F01F034FF0A04204FA03F3C2F80835A4
:104BF0000121019004F090F90198294603B0BDE825
:104C0000304004F067B91F2B86BF074A03F01F032B
:104C10004FF0A04204FA03F3C2F80C35E8E700BFF6
:104C200084DA0000CADA000000030050FFF7B5BFC5
:104C300037B50D460446019204F028F9013507D036
:104C4000019A0021204603B0BDE83040FFF7B8BF0D
:104C500003B030BD0022FFF7EBBF000000487047F3
:104C600088DD0000024B1B680BB1024818477047F3
:104C70000802002088DD00002DE9F74F446894F811
:104C80003A100646002955D101684968884771687D
:104C9000096A814205464DD0206AE168A66825620E
:104CA000281A0140384886428C464FF0000E39D011
:104CB00094F83BB0D4E90A5A0027A1FB0001BBF1EC
:104CC000000F46D0CBF1200801FA08F820FA0BFCBF
:104CD000ABF1200E21FA0EFE4CEA080C4CEA0E0C49
:104CE0002D1821FA0BFEABF120094AEB010ACBF19A
:104CF00020080EFA0BF10CFA09F941EA09012CFA25
:104D000008F80CFA0BF02B1A41EA080100936AEB41
:104D100001030193DDE90023BB4208BFB2420CD27C
:104D2000C4E90A23D4E90C0110EB0C0041EB0E019D
:104D3000C4E90C0103B0BDE8F08F009B1CF1010C2D
:104D40004EF1000E9A1B019B63EB0703C4E90A2393
:104D5000E8E732463B4607F0F1F912EB050843EB72
:104D60000A09B94508BFB04584468E4602D2C4E957
:104D70000A89D7E710F1010C41F1000EB8EB0602E9
:104D800069EB0703E2E700BF40420F00824206D909
:104D90008A420BD9884294BF002001207047884284
:104DA00006D98A428CBF002001207047012070473D
:104DB000002070472DE9F74FD0F8048098F83A307A
:104DC0000446002B78D198F83930002B74D1FFF7C6
:104DD00053FF65686B68002B71D0D5E90C01D3E9EE
:104DE0000023994208BF904205D323685B6903B052
:104DF000BDE8F04F1847161A63EB0107D5E9062303
:104E0000BB4208BFB242D5F8109006D3AA68334B14
:104E10009A4211D1B14528BFB1462A6AD8F820304C
:104E20009144EA6809EA0202934235D12C492D489F
:104E300040F21B1200F014FC95F83B30EBB1A3F1EB
:104E4000200CC3F1200226FA02F206FA03F007FA58
:104E500003F106FA0CFC244E41EA0C0111438019BF
:104E60001E4A4FF000064FF0000346EB010107F029
:104E700065F9814528BF8146CFE71B48A2FB06ABF9
:104E800002FB07BB1AEB00004FF00001134A4FF082
:104E900000034BEB0101EAE72368019210461B690E
:104EA000984723685B689847019A0146D8F8200024
:104EB000FFF76CFF002898D103B0BDE8F08FD8F859
:104EC0001030D8F82000D8F80C20184423681B694B
:104ED000104003B0BDE8F04F184700BF40420F003C
:104EE000B4DD0000F5DD00003F420F002DE9F04F7A
:104EF000436893F8382085B00546002A63D193F8BB
:104F00003A30002B5FD103681B6898472B68DB6938
:104F1000984703682BB92D492D4800931A4600F095
:104F20005FFE1F21012202FA01F4A3425FFA81FA17
:104F300002D00139F7D18A464668321F1C2A05D9AA
:104F400000232449244800931A46E8E71C4614F13C
:104F5000FF384FF0000321494FF0070743F1FF39B5
:104F60009740C1FB078922464046494607F0E6F8CC
:104F70006B682A6803934FF00008C3E90088526801
:104F8000894683469047039B0122186202FA06F67F
:104F90006B6800210020013EC3E90A01C3E90C014E
:104FA000C3E903672846C3E906B99C6083F83BA0C0
:104FB0001A8783F83A80FFF75FFE284605B0BDE800
:104FC000F04FFFF7F7BE05B0BDE8F08F19DE000027
:104FD0000E01048032DE00000501048040420F0013
:104FE00038B505460C46FFF781FF00F059FC6B68A9
:104FF0001C60BDE8384000F069BC70B5044600F0A4
:105000004FFC2368DB689847636893F83A201AB12D
:10501000BDE8704000F05ABC012283F83920636873
:105020005B68A3B12046FFF727FE65686E68D5E987
:105030000C01D6E90023994208BF904207D3F368D8
:105040006B602B68002BEAD0B0689847E7E763688D
:10505000002283F839202046FFF7ACFED8E72DE97F
:10506000F7430A9D01900C469046994600F018FCC3
:105070000198FFF701FE0198A5604268C4E9008924
:10508000536800212BB9E36061B95460FFF792FEC9
:105090000FE0D3E90067B94508BFB045F3D319461F
:1050A000DB68EFE7D2E90C234B4508BF4245CC60F3
:1050B000ECD203B0BDE8F04300F008BC38B50546BB
:1050C0000C4600F0EDFB6A685368A34209D1DB6827
:1050D00053602846FFF76EFEBDE8384000F0F6BB8F
:1050E0001346002BF8D0DA68A242F9D1E268DA6000
:1050F000F2E738B50446FFF7F9FE00F0D1FB204691
:10510000FFF7BAFD6368D3E90C4500F0DFFB2046EA
:10511000294638BD08B5FFF7ECFF08BD024B002259
:105120001A7005F04FB800BFC11D002008B504F08B
:10513000B5FF024B01221A7008BD00BFC11D00203F
:105140000048704770DE0000024B1B680BB102483C
:10515000184770470C02002070DE000091F90C2007
:1051600091F9041004F05ABB024B1B6803B11847B5
:10517000704700BFA80D002007B5019000F090FB1C
:10518000019803B05DF804FB07B5019000F09EFBA9
:10519000019803B05DF804FB10B50446FBF7BEFBB5
:1051A000084B2360A069FFF7A4FF00220023C4E995
:1051B0000C230023C4E90801C4E90A01A363A387FF
:1051C000204610BD14DF00004FF0FF307047000094
:1051D00038B590F83C50044625B10A490A488E2259
:1051E00000F03EFAFBF7BAFB94F83D3084F83950F2
:1051F00084F83A502BB184F83D50BDE8384000F0B7
:1052000001BE38BD9CDE0000E4DE000010B504469F
:1052100001F1300000F06BFAC4E90001204610BD36
:1052200010B504468869FFF764FFC4E90001204611
:1052300010BDD0E90C32013342F10002C0E90C325A
:10524000D0E90A3213F57A7342F10002C0E90A325A
:105250007047D0E90A2312F57A7243F10003FBF795
:1052600073BBF8B50D4604468869FFF742FFD5E9E0
:105270000A32C61A61EB0207002F08BFB6F57A7F23
:1052800005D200220023C4E900232046F8BD002FE8
:1052900008BFB6F5FA6F01D20122F3E7002E77F1CD
:1052A00001034FF47A724FF000033046B4BF00217F
:1052B000394606F043FFC4E90001E6E791F83C30C7
:1052C000F7B505460C4613B991F8396026B1124975
:1052D0001248E02200F0C4F96846FFF7C2FFDDE99A
:1052E00000324FF47A7184F83860A3FB016701FB48
:1052F0000277D4E90A10891947EB0000C4E90A10C3
:10530000D4E90C105B1840EB02022846C4E90C32C9
:10531000C5E9003203B0F0BD9CDE0000EEDE000007
:10532000F0B51F4690F83C3085B00446164623B1D0
:1053300021492248582200F093F990F8395065B974
:10534000014602A8FFF7BAFFDDE90223BB4208BF0E
:10535000B24204D3012384F83A3005B0F0BD2146AF
:1053600002A8FFF753FF4FF47A73A6FB030103FB78
:105370000711D4E90823821894F83D0084F83A50C4
:1053800041EB0303012184F8391060B9A06900687A
:1053900090F8200038B984F83D10CDE9002300F0E2
:1053A0001BFDDDE900230021204684F83B1005B0F9
:1053B000BDE8F040FBF7C8BA9CDE0000E4DE000068
:1053C000024B4FF080625A60704700BF00ED00E072
:1053D00008B50121383000F069F908B1FFF7F0FF96
:1053E00008BD10B5012380F83C3090F838300446F1
:1053F0000BB1FFF7E5FF2046FFF72BFF10BD90F83C
:10540000393010B504464BB1002380F8393090F89C
:105410003B3013B9012380F83A3010BD90F83C308E
:10542000002BFAD090F83830013380F83830FFF78D
:10543000C7FF2046FFF7FDFE2046FFF70AFFECE717
:10544000024B4FF000725A60704700BF00ED00E061
:1054500010B50446FBF782FA002384F83C30FFF7CE
:10546000EFFF10BD102300F007B8202300F004B8B0
:10547000302300F001B840239C46F0B404AE7546DA
:10548000E80801D3EFF309860E4F0FCE0FC70FBC0C
:105490000FC74046494652465B460FC71DCE3100F6
:1054A000A60A00D304316E0900D248311FC7EFF3BA
:1054B00009806946EFF3148663C76046014900F02E
:1054C00079F800BF00010020F0B52C4E2C4F85B0BC
:1054D00000243546214656F8042B3846013400F0A6
:1054E000C5F90D2CF6D1AB6C02936B6C01932B6C50
:1054F000244C0093D5E90E23696B234800F0B6F9DC
:105500002168224800F0B2F9E16AA26AA36AA06A9F
:10551000266BE76B000CCDE901670090C3F307230E
:105520001B48D2B200F0A2F9A36A1E0603D5616B34
:10553000184800F09BF9A36A180403D5A16B16481C
:1055400000F094F9EB6C190712D5144800F08EF9AD
:105550002B6DDA070FD5124800F088F9EB6C5B076A
:105560004CBF1048104805B0BDE8F04000F07EB9CF
:105570000E4800F07BF90E48EEE700BF0001002066
:1055800018DF000000ED00E026DF000075DF0000FE
:1055900083DF0000D2DF0000E0DF0000EEDF00006C
:1055A000FDDF00002DE0000039E000001DE00000FC
:1055B0000AE0000007B504460D461A48012100F034
:1055C00090F868BB184800F051F9302C19D0402CE5
:1055D0001CD0202C1FD11548154C00F047F9154858
:1055E00000F044F9FFF770FF134800F03FF90D4B4E
:1055F00000221A700023114900932A46204600F029
:10560000EFFA0F480F4C00F031F9E8E70E480F4C65
:1056100000F02CF9E3E70E480E4C00F027F9DEE726
:105620000024E7E7C21D002045E000006EE0000016
:105630003E01FF809BE00000A6E00000C5E0000006
:105640007DE000003F01FF8086E000004001FF8018
:1056500091E000003D01FF8007F0F8BA07F002B9C1
:1056600007B50B46009201460022014800F0B8FA47
:105670004401FF8003460122D3E84F0FC3E8412FC6
:10568000C0B20029F8D17047D0E85F3F5B18C0E88E
:10569000523F002AF8D198B27047034653E8000FF2
:1056A000401843E80002002AF8D17047D0E84F3F85
:1056B0005B1AC0E8423F002AF8D1D8B27047D0E860
:1056C0005F3F5B1AC0E8523F002AF8D198B270479A
:1056D000034653E8000F401A43E80002002AF8D1BD
:1056E0007047D0E84F3FC0E8421FD8B2704738B586
:1056F000044600F0D5F8D4E9004500F0E7F820466C
:10570000294638BD08B5024902482022FFF7A8FF04
:1057100084DA0000CADA000083B500F0C1F80D2178
:1057200001A8FFF797FA2C4C2C4D04269DF9043064
:105730005F1C01D1FFF7E6FF1F2B86BF03F01F039D
:1057400021464FF0A041012202FA03F3C1F80835C7
:10575000284600F03FFE9DF90430581CEAD01F2B6C
:1057600086BF03F01F0321464FF0A041012202FA39
:1057700003F3C1F80C35284600F02CFE013ED5D1CC
:10578000174F04269DF90430591CD3D01F2B86BF18
:1057900003F01F0321464FF0A041012202FA03F358
:1057A000C1F80835384600F015FE9DF904305A1C42
:1057B000C0D01F2B86BF03F01F0321464FF0A0412E
:1057C000012202FA03F3C1F80C35384600F002FE5C
:1057D000013ED7D1A9E700BF00030050F049020005
:1057E000801A060073B5002201460446022000F02C
:1057F0007FFC0D2600F054F80022254614F8013BEA
:105800001BB900F063F802B070BD0A2B09D10D2A54
:1058100007D001220DF1070102208DF8076000F08A
:1058200067FC01222946022000F062FC14F8012CDA
:10583000E3E7000000B5A3B002460B4601A88421AF
:1058400000F0CAFF832806D9074B1A681B79CDF8E8
:1058500083208DF88730002802DD01A8FFF7C2FF02
:1058600023B05DF804FB00BFD5E000000FB407B51E
:1058700004A951F8040B0191FFF7DCFF03B05DF8B8
:1058800004EB04B07047EFF31080C04300F0010058
:105890007047EFF30580003818BF01207047000003
:1058A00008B503F0C9F9064A1368591C04D1054923
:1058B00005483F22FFF7D4FE0133136008BD00BF47
:1058C000AC0D0020DAE0000025E10000044A136876
:1058D00023B1013B13600BB903F0B6B9704700BFA9
:1058E000AC0D002008B50B48FFF7C4FE28B1FFF748
:1058F000D7FFBFF34F8F20BFFDE7FFF7CAFF08B107
:10590000FFF70AFFFFF7BFFF0028F9D0012000F0E2
:1059100044FB00BFF80D00202DE9FF41464C0E4628
:105920002168C1F34173032B0CBF4D428DB2C1F30B
:1059300007438046174641482A46FFF797FF6FF412
:1059400098731D44132D0FD8DFE805F00A585B5EED
:105950006167646A0E0E0E0E0E0E0E0E0E0E0E6DAA
:10596000A1683748FFF782FF4046FFF73BFF6168B9
:105970003448FFF77BFF4EB13348FFF733FF304623
:10598000FFF730FF31483946FFF770FFA168304814
:10599000FFF76CFF23682F4A1A44012A05D92E4AC3
:1059A000934202D0033A934241D1A06820B1C06C27
:1059B00080F00800C0F3C000E368002B39D05968BC
:1059C000264A002908BF1146E2690392A2690292A1
:1059D0006269019222690092214D224A002818BF73
:1059E0002A462148FFF742FF21682048FFF73EFF83
:1059F0001F4804B0BDE8F041FFF738BFA1681D485B
:105A0000B0E7A1681C48ADE7A1681C48AAE7A168F7
:105A10001B48A7E7A1681B48A4E7A1681A48A1E7AB
:105A2000A1681A489EE71A48FFF720FF9CE700206C
:105A3000C2E70A49C8E700BFFC0D00206BE1000087
:105A4000BCE1000064E2000075E200007DE20000BD
:105A500081E20000C2FE007F4001FF8056E10000AD
:105A600060E10000C4E0000095E20000EEE200000A
:105A70003BE30000D2E10000E2E10000F1E10000C0
:105A800004E2000018E200002CE200003BE200000B
:105A900051E200007047000070B52C4C90B034EA21
:105AA000200428BF04460D46164600213C2201A8CA
:105AB00007F050FC264B00942344012B029505D996
:105AC000244B9C4202D0033B9C4237D1EB6B0193A9
:105AD0006B6B0793204B5B690393DA6B04925A6BF1
